:020000040810E2
:10000000305D0120A9031008B103100879551008CC
:10001000B5031008B7031008B9031008000000006A
:10002000000000000000000000000000116910083E
:10003000BD0310080000000021571008F16A1008E5
:10004000C3031008C3031008C3031008C303100838
:10005000C3031008C3031008C3031008C303100828
:10006000C3031008C3031008A11B1008C303100822
:1000700071181008C3031008C3031008C303100845
:10008000C3031008C3031008C3031008C3031008F8
:10009000C3031008C3031008C3031008C3031008E8
:1000A000C3031008C3031008C3031008C96C100869
:1000B000C3031008C3031008796E1008D155100847
:1000C00081551008C3031008C3031008C3031008A8
:1000D000C3031008D9711008C9721008D174100830
:1000E000C3031008C303100800000000C303100876
:1000F000C3031008C3031008C3031008C303100888
:10010000C3031008315A1008E16E1008C303100829
:10011000C3031008096F1008C3031008C3031008B5
:10012000C3031008C3031008C3031008C303100857
:10013000C3031008C3031008C3031008C303100847
:1001400000000000000000000000000000000000AF
:10015000C3031008C3031008C3031008C303100827
:10016000C3031008C3031008C3031008C303100817
:10017000C3031008C3031008C303100800000000E5
:10018000C3031008C3031008F96F1008E9701008C2
:10019000C3031008C3031008C3031008C3031008E7
:1001A000C3031008C3031008C3031008C3031008D7
:1001B00089571008C3031008C3031008C3031008AD
:1001C000C3031008C3031008C3031008C3031008B7
:1001D000C303100811571008C3031008C303100805
:1001E000C3031008C3031008C3031008C303100897
:1001F000C3031008C3031008C3031008C303100887
:10020000C3031008C3031008C3031008C303100876
:10021000C3031008A96B1008796C1008C3031008F9
:10022000C3031008C3031008C30310080000000034
:10023000C3031008C303100800000000C303100824
:10024000C3031008C3031008C3031008C303100836
:10025000C3031008C3031008C3031008C303100826
:10026000C3031008C3031008C3031008C303100816
:10027000C3031008C3031008C303100800000000E4
:10028000C3031008C3031008C303100800000000D4
:1002900000000000C303100800F002F800F075F839
:1002A0000AA090E8000C82448344AAF10107DA45D1
:1002B00001D100F06AF8AFF2090EBAE80F0013F0AE
:1002C000010F18BFFB1A43F00103184784DD070034
:1002D000D4DD07000A444FF0000C10F8013B13F086
:1002E000070408BF10F8014B1D1108BF10F8015B8F
:1002F000641E05D010F8016B641E01F8016BF9D182
:1003000013F0080F1EBF10F8014BAD1C0C1B09D1D8
:100310006D1E58BF01F801CBFAD505E014F8016B4A
:1003200001F8016B6D1EF9D59142D6D370470000DC
:100330000023002400250026103A28BF78C1FBD8EE
:10034000520728BF30C148BF0B607047662928F0AC
:1003500039A5642900F00081002070471FB568F0BE
:10036000E8FC9DE8030001F023F900F0EFFE040033
:100370000020002168F02CFCE06000F0FFFB1FBDB6
:1003800010B5002001F092F810BD01F0CFF8114631
:10039000FFF7E4FF5EF0CCF901F040F903B4FFF79A
:1003A000EFFF03BC53F0E8FE0948804709480047C7
:1003B000FEE7FEE7FEE7FEE7FEE7FEE7FEE7FEE715
:1003C000FEE7FEE704480549054A064B7047000072
:1003D000296B10089902100830230120305D01209C
:1003E0003038012030380120704753EA020C00F009
:1003F00069802DE9F04B4FF00006002B1FBFB3FAC8
:1004000083F503FA05F424FA05F65E4012BF16439D
:10041000B2FA82F502FA05F4C5F120051EBF22FAF0
:1004200005FC44EA0C04203556EA044C4FEA144417
:1004300018BF641C4FF000084FF00009904271EBA8
:10044000030C39D3002919BFB1FA81F701FA07F675
:10045000B0FA80F700FA07F6C7F120071EBF20FAAE
:1004600007FC46EA0C062037B6FBF4FCA7EB0507B1
:10047000103F07F01F0BCBF120062CFA06F60CFA02
:100480000BFB44BFB3460026202FA4BF5E464FF0AF
:10049000000B5BEA060C08BF4FF0010B19EB0B09D0
:1004A00048EB0608ABFB027C06FB02CC0BFB03CC43
:1004B000C01B71EB0C01C1E70B46024641464846A2
:1004C000BDE8F08B13B5084318BF4FF0FF3001466D
:1004D000AFF30080BDE81C40704700000FB41CB5AE
:1004E000084B06AA7B4469460090059800F0D1FDB0
:1004F00004460020694600F0DFFD20461CBC5DF884
:1005000014FB0000D10B000070B50446856900683B
:10051000C10601D5302600E02026C00707D070BDF7
:10052000D4E9012130469047206A401C20626D1EAC
:10053000F6D570BD70B5044685690078C00707D14F
:1005400070BDD4E9012120209047206A401C206220
:100550006D1EF6D570BD00002DE9F0410646002461
:1005600010687529314616A510D0AFF30080002819
:1005700002DA404213A507E031688A0701D512A5C7
:1005800002E0490704D511A5012401E0AFF3008082
:1005900000210A2206F1240709E0B0FBF2FCB0FBBF
:1005A000F2F302FB1C00303078541846491C002836
:1005B000F3D123462A463046BDE8F04100F0FCBAAC
:1005C000000000002D0000002B00000020000000B3
:1005D0002DE9F05F894604464FF0000ADFF824B1A8
:1005E000FB44C0F820A02046E168884700287DD061
:1005F000252806D0D4E901219047206A401C2062BA
:10060000F1E700255F462046E16888472028064636
:1006100007DB312E05D2B81910F8200C08B10543BC
:10062000F1E7A80701D525F00405C4F81CA00027B0
:10063000C4F818A02A2E09D0304668F079FA38B3E9
:1006400004EB8708303EC8F8186019E059F8041B1D
:10065000204604EB87029161E1688847012F064636
:1006600018D1E069002820DA25F020051DE0D8F82F
:10067000180000EB800006EB40003038C8F8180086
:100680002046E1688847064668F052FA0028EED115
:10069000012F0AD02E2E08D12046E16888477F1C02
:1006A0000646022F45F02005C4DBA069002803DAC6
:1006B000404245F00105A061E80701D025F0100592
:1006C000A6B1A6F14100192802D8203645F40065EC
:1006D0004A463146204625604D46FFF737FE60B159
:1006E000012807D0ED1D25F0070000E007E000F12C
:1006F000080978E705F1040975E730467AE7206ACA
:10070000BDE8F09F6C9106000B460146184600F0CC
:10071000E3BC00000EB5054614460E4613A000F0DB
:10072000F2FC284600F0EFFC16A000F0ECFC30468E
:1007300000F0E9FC15A000F0E6FC00218DF80B109C
:100740000A210DF10A008DF80A1008E094FBF1F27D
:1007500001FB124294FBF1F4303200F8012D002C21
:10076000F4DC00F0D0FC00F0ACFC00002A2A2A20C7
:10077000617373657274696F6E206661696C65641C
:100780003A2000002C2066696C6520002C206C69E2
:100790006E652000401ECAB210F8011F8A4202D0C6
:1007A0000029F9D10020704730B503461D781DB1EE
:1007B0000A4603E0AC4201D1181A30BD12F8014BD1
:1007C000002CF7D15B1CF1E730B503461D783DB135
:1007D0000A4612F8014B1CB1AC42FAD15B1CF5E79A
:1007E000181A30BD40EA010310B59B070FD1042A47
:1007F0000DD310C808C9121F9C42F8D020BA19BAEC
:10080000884201D9012010BD4FF0FF3010BD1AB150
:10081000D30703D0521C07E0002010BD10F8013BA5
:1008200011F8014B1B1B07D110F8013B11F8014BCC
:100830001B1B01D1921EF1D1184610BD40EA0103E5
:10084000024630B59B0710D14FF0013400E008C2DA
:1008500008C91D1B9D4315EAC41FF8D013F0FF0102
:1008600002F8011B0DD01B0AF8E711F8013B002B21
:1008700002F8013B05D011F8013B002B02F8013BC7
:10088000F3D130BD10B5431C02E010F8011B71B16B
:100890008107FAD14FF0013202C88C1A8C4314EA56
:1008A000C211F9D0C01A0A0603D0C01E10BDC01A6A
:1008B00010BD0A0401D0801E10BD0902FCD0401EEC
:1008C00010BD421E12F8013F002BFBD111F8013B75
:1008D000002B02F8013BF9D17047032A40F2308027
:1008E00010F0030C00F0158011F8013BBCF1020F71
:1008F000624498BF11F801CB00F8013B38BF11F8F2
:10090000013BA2F1040298BF00F801CB38BF00F808
:10091000013B11F0030300F02580083AC0F0088085
:1009200051F8043B083A51F804CBA0E80810F5E769
:10093000121D5CBF51F8043B40F8043BAFF300804C
:10094000D20724BF11F8013B11F801CB48BF11F8C1
:10095000012B24BF00F8013B00F801CB48BF00F891
:10096000012B704710B5203AC0F00B80B1E8185049
:10097000A0E81850B1E81850A0E81850203ABFF489
:10098000F5AF5FEA027C24BFB1E81850A0E8185028
:1009900044BF18C918C0BDE810405FEA827C24BF7C
:1009A00051F8043B40F8043B08BF7047D20728BF0A
:1009B00031F8023B48BF11F8012B28BF20F8023B59
:1009C00048BF00F8012B7047431A28BF9A427FF6B0
:1009D000C9AF1044114410F0030F1EBF11F8013DC0
:1009E000521E00F8013D10F0030F7FF4F6AF103AED
:1009F000C0F00A8010B531E9185020E91850103ABB
:100A0000BFF4F9AFBDE81040530724BF31E9081027
:100A100020E9081044BF51F8043D40F8043D12F0AD
:100A2000030F08BF7047D20728BF31F8023D48BF07
:100A300011F8012C28BF20F8023D48BF00F8012C16
:100A4000704702F0FF0343EA032242EA024200F049
:100A50000AB802F0FF0343EA032242EA024200F02E
:100A600024B84FF000020429C0F0128010F0030CEB
:100A700000F01B80CCF1040CBCF1020F18BF00F891
:100A8000012BA8BF20F8022BA1EB0C0100F00DB840
:100A90005FEAC17C24BF00F8012B00F8012B48BF9E
:100AA00000F8012B70474FF0000200B51346944642
:100AB0009646203922BFA0E80C50A0E80C50B1F1B6
:100AC0002001BFF4F7AF090728BFA0E80C5048BFCA
:100AD0000CC05DF804EB890028BF40F8042B08BF68
:100AE000704748BF20F8022B11F0804F18BF00F864
:100AF000012B70470000000030B44FF0013C50F86B
:100B0000042BCCFA52F451F8043BD51A20D1FCB98D
:100B100050F8042BCCFA52F451F8043BD51A17D1F3
:100B2000B4B950F8042BCCFA52F451F8043BD51A5E
:100B30000ED16CB950F8042BCCFA52F451F8043BA6
:100B4000D51A05D1002CDAD030BC4FF00000704728
:100B500029BAB1FA81F111F01801D1F120008440D5
:100B6000F2D1CA40CB4012F0FF0213F0FF0330BCB9
:100B7000D01A7047704770477047000070B5064C38
:100B80007C44064D7D4404E02046016808448047CB
:100B9000241DAC42F8D170BD38D5070088D50700B8
:100BA000704710B500F0DAFA006810BD10B50446C1
:100BB00000F0D4FA046010BD2DE9F0470D469946C7
:100BC0009246044600F124080168880604D5E069CD
:100BD00021F01001216000E00120A84201DD471B47
:100BE00000E00027A1697A1902EB0900081AA06148
:100BF0002078C00602D42046FFF786FC002608E0D5
:100C0000D4E901211AF806009047206A401C761C9E
:100C100020624E45F4DB2078C0060AD52046FFF757
:100C200073FC06E0D4E9012130209047206A401C83
:100C30002062381EA7F10107F4DC07E0D4E90121A6
:100C400018F805009047206A401C2062281EA5F174
:100C50000105F3DC2046FFF76DFC2078000602D585
:100C60000220BDE8F0870120FBE72DE9FF4F0C468D
:100C70001E464FF0FF378BB0D2E90001DDF86080EF
:100C80000A908A46C1F30A5505B93D460021084637
:100C90004FF00000BAF1000F00F4400005DA00EB5D
:100CA00080004FF4400101EA50004FEA9059B9F139
:100CB000010F00DDB9460A9850EA4A000ED044F60A
:100CC0001050A5F2FF3545432F14B8F1000F1ED088
:100CD0007542291E1EDDC9F100021CE0B8F1010FAA
:100CE0004FF0000001D0302103E0F24305E0215431
:100CF000401CB042FBDB30460022002121540B99FE
:100D0000C1F80880C1E900200FB0BDE8F08FBD1B1D
:100D10006D1CDEE74A4600DA694206A800F054FB83
:100D200006AB93E8070003AB83E8070050460A9937
:100D300065F068FB8DE80700A0F500501F380090B3
:100D40000398002D0ADD42F21F014A4608440023A1
:100D500003A90390684665F0D1FD09E0A0F50050B5
:100D60004A461F38002303A90390684665F0DBFD5F
:100D70008DE807000004000C03D04FF0FF3041085D
:100D800000E01046B8F1000F03D000220092154693
:100D90001EE0751E05D400F092FA303262556D1EC9
:100DA000F9D5B3460122084302D000227F1C04E09B
:100DB0002078302801D100227F1E002A099784D094
:100DC0001DE0112D07DA00F07AFA303262556D1C01
:100DD00050EA0102F5D1084302D00098C8B10EE0F4
:100DE0000021681E05E0235C625C63542254401EAF
:100DF000491C8142F7DBAB46A81B401E099000202E
:100E000004F80B000B98099AC0F80880C0E9002B81
:100E10007AE711264FF0000857E72DE9F04F884692
:100E20000446D21D22F0070191B0D1E90001CDE9BD
:100E30000A0165F0AFFE02460B98C00F01D02D20CD
:100E400007E02068810701D52B2002E0202101EA7C
:100E5000C000032A099001D0072A05DB034641465A
:100E6000204600F071FA0BE12078800601D5E06998
:100E700000E00620B8F1650F814606D0B8F1660F94
:100E800018D0B8F1670F70D131E00020B9F1110F1F
:100E9000009001DB112301E009F101030AAA01A975
:100EA0000CA8FFF7E2FEDDE90C70002609F1010550
:100EB000834647E001204B4600904FF000470AAAC6
:100EC00001A90CA8FFF7D1FEDDE90DB00C995D4634
:100ED000002610B909F101000D18B9EB050003D483
:100EE000C0F1FF3609F10105A5EB09002BE0B9F1CE
:100EF000010F01DA4FF001090020B9F1110F009044
:100F0000484601DD112300E003460AAA01A90CA806
:100F1000FFF7ABFEDDE90C704D46002683462078D6
:100F200000070AD4AB4500DA5D4601A8012D04DDB7
:100F3000411911F8011C302907D04F4502DA17F189
:100F4000040F04DA012082460FE06D1EEEE7002F49
:100F500002DCED1B3E4403E0781CA84200DD7D1C52
:100F6000B81B00F1010A4FF000472078000703D4B6
:100F7000AA4501DB4FF0FF3A0021B7F1004F0DF118
:100F800043088DF8431024D002202B23002F01DAD0
:100F90007F422D230A21021EA0F1010000DC5FB177
:100FA00097FBF1FC97FBF1F201FB1C7C17460CF15F
:100FB000300C08F801CDEEE7A8F10100037021889C
:100FC000090501D5452100E06521A0F1010800F8DF
:100FD000011C09980FA9A1EB0807FF1D00B1012012
:100FE000411901EBEA70A1693844081A401EA0615A
:100FF0002078C00602D42046FFF786FA099828B167
:10100000D4E901219047206A401C20622078C00664
:1010100022D52046FFF778FA1EE0002E04DBB34508
:1010200002DD01A8805D00E03020D4E90121904775
:10103000206A401C2062761CAAF101005FEA000AC7
:101040000AD100F083F8C0680168405CD4E901214E
:101050009047206A401C2062281EA5F10105DCDCB7
:1010600007E0D4E9012118F8010B9047206A401CE1
:101070002062381EA7F10107F3DC2046FFF75AFA79
:10108000032011B041E6000001694A1C02610878A2
:10109000704700B58FB0CDE90131002105910549B8
:1010A0007944CDE9031011466846FFF791FA0FB075
:1010B00000BD0000E5FFFFFF0A6802F8010B0A60AF
:1010C000704710B5002000F012FAFFF759F9BDE89B
:1010D0001040012053F050B82DE9F0410746154665
:1010E0000E46102000F03EF804000AD06760C4E904
:1010F000026500F02FF80168216004600020BDE85F
:10110000F0810120FBE710B5044602E0641C53F0B7
:1011100037F820780028F9D110BD000080E8FF1FC3
:10112000C0F834D0C0F838E0C0F83CE04FF0000020
:10113000704700BF80EC200B704700BF80EC200B95
:10114000704700BFC0EC200B70470000004870479C
:10115000C0FB052400487047D8FB052400487047B1
:10116000A0FB052470B5064600F006FA056806F1F6
:101170000B0020F00704B4429CBF002070BD2B463A
:101180006A68BAB11068A04210D304F1080188421D
:101190003CBF5068586007D351681019416011680E
:1011A000091B016058601460101D70BD1346526821
:1011B000002AE7D12146284600F0E6F90028DED1D2
:1011C00070BD70B50446051F00F0D6F90068002C0C
:1011D00014BF446870BD002C18BFAC423CBF204611
:1011E0006468F8D301680A18AA4218BF456003D1A1
:1011F0002A6805461144016028684119A1421CBFB4
:101200006C6070BD6168696021680844286070BDC9
:101210002DE9F04791460C46804600F0ADF907688D
:10122000604234EA000001D1042C02D20520BDE85E
:10123000F087601E40F0070609F10B0020F007055B
:101240004D4539D93B467A6882B31468101D404237
:1012500006EA000C644525D9A4EB0C00854221D890
:10126000BCF1000F0BD0104601686244A1EB0C01E9
:10127000116041685160C0F800C0586003461168B1
:1012800005F10800814205D35019491B0160156022
:101290005860034652F8040F58600020C8F8002038
:1012A000BDE8F08713465268002ACED12946384659
:1012B00000F06AF90028C5D10620BDE8F08730B5F6
:1012C000B0F10A0271F100034FEA900E4EEA817EFE
:1012D000B0EB0E0061EB91014FEA101E4EEA017E69
:1012E00010EB0E0041EB11114FEA102E4EEA016E89
:1012F00010EB0E0041EB11214FEA104E4EEA014E69
:1013000010EB0E0041EB1141401841F100014FEA92
:10131000D00040EA41704FEAD1014FEA810444EA2B
:10132000907410EB800544EB01046D1944EB040448
:10133000521BA3414FF0000348BF0A3200D530BD15
:10134000401C41F1000130BD2DE9F0411F4604462B
:1013500003260168072A01F4006004DB08B116A522
:1013600005E016A503E008B115A500E015A521F0DC
:1013700010002060A069C01EA0610FB1401EA061D6
:101380002046FFF7C1F84FB1D4E901213846904714
:10139000206A401C2062C01C206206E0206AFAE736
:1013A000D4E9012115F8010B9047761EF8D22046AA
:1013B000FFF7C0F8BDE8F0814E414E006E616E004F
:1013C000494E4600696E66002DE9F0478146164693
:1013D0008AB0354878440DC88DE80D00324878440D
:1013E000801C03AC0DC884E80D0041F69B30084416
:1013F000372190FBF1F290FBF1F5A5F1800501FB9F
:1014000012041B3C02D56442012000E00020DFF8FA
:1014100098A080460027FA44AAF1BE0A0EE0E00731
:101420000AD03246684607EB470101230AEB8101E7
:1014300065F079FA8DE8070064107F1C002CEED16E
:10144000194F7F44AE3F19E0E80715D007EB0410B1
:101450000DF1180A90E80E008AE80E00C068F0420C
:1014600001D1981908903246012306A903A865F016
:101470005AFA03AB83E807006D10641C002DE3D11A
:101480004FF0010332466946B8F1000F03A802D0BD
:1014900065F034FA01E065F046FAC9E90001C9F8DF
:1014A00008200AB0BDE8F087B48706002DE9F041B6
:1014B0000646FFF74FFE8046454613E016B1E0684A
:1014C000B0420ED120682860D4E90101D8F800703C
:1014D00088472046FFF775FED8F80000B842EBD1E8
:1014E00000E025462C68002CE8D1BDE8F08110B55D
:1014F00000F0A2F8BDE8104000F099B886469EE8DA
:10150000FF1FDEF834D0DEF83CE0704790EC200B93
:10151000704700BF90EC200B704700BFD0EC200B51
:101520007047000000487047A0FB05247546FFF790
:10153000F9FFAE4605006946534620F00700854690
:1015400018B020B5FEF73EFFBDE820404FF0000682
:101550004FF000074FF000084FF0000BAC46ACE82E
:10156000C009ACE8C009ACE8C009ACE8C00921F08A
:1015700007018D467047000000487047A8FB05240E
:10158000704770477047704738B504460A460020D8
:101590006946AFF30080002808BF38BD02460099B5
:1015A000204600F061F8012038BD012000F08FB81E
:1015B000F8B5AFF30080054600200C46102000BFB0
:1015C0000646A819A0420DD9324669460020AFF35D
:1015D0000080070008BF00F07AF80098A04218BF0A
:1015E0000546C419FFF7C8FF05600746F01D20F047
:1015F00007004619284600F00AF8B44208BFF8BDB3
:10160000A21B31463868BDE8F84000F02DB8002133
:101610000160C0E9011070471020704710B5044602
:10162000AFF300802046BDE81040FEF7B7BE0028AB
:1016300001D052F0A1BD704710B5002102A000F00A
:101640002DF8012010BD0000534947414252543A41
:101650002041626E6F726D616C207465726D696E8F
:101660006174696F6E000000034640688C46002874
:1016700018BF88423CBF03464068F8D31868184436
:10168000884207D00CF1030020F00700001D411A2A
:10169000521A0146081D0A60FFF793BD70B5054652
:1016A0000C460A2000E06D1C52F06AFD35B1287826
:1016B0000028F8D102E0641C52F062FD14B12078D9
:1016C0000028F8D1BDE870400A2052F059BD10B58D
:1016D00000F004F8BDE81040FFF7A9BF10B50128DD
:1016E00005D0002103A0FFF7D9FF012010BD09A1FB
:1016F000F8E7000053494752544D454D3A204F7585
:1017000074206F662068656170206D656D6F7279F9
:10171000000000003A2048656170206D656D6F72B1
:101720007920636F72727570746564000000000048
:101730004AF2EC410246C2F206410846114603F065
:10174000BBB900000000000080B54AF2EC40C2F2D4
:10175000064003F0C5F9043818BF012080BD000021
:1017600010B582B001208DF807001020C5F60200E8
:10177000006800040FD49DF80700012812D14AF236
:10178000EC40C2F2064003F0F7FB044600060DD021
:10179000E0B202B010BD00208DF807009DF80700F0
:1017A0000128ECD00224E0B202B010BD4AF2EC40B5
:1017B0004FF48041C2F2064003F016F8002818BF2B
:1017C0000124E0B202B010BD81B001208DF8030009
:1017D0001020C5F602000068000402D500208DF834
:1017E00003009DF8030001B07047000000000000F6
:1017F00080B513460A4601464AF2EC40C2F2064062
:1018000003F0A2FD002818BF012080BD00000000E9
:101810004FF6B0700121C2F205404FF0FF32406830
:101820005EF0E6BA0000000080B513460A460146A5
:101830004AF2EC40C2F2064003F016FE002818BF40
:10184000012080BD000000004FF6B0700221C2F2FE
:1018500005404FF0FF3240685EF0CABA0000000059
:1018600042F20C600021C2F2064001707047000095
:101870002DE9F04182B010264FF61004C4F20206A2
:10188000C2F205444FF4746040F2184546F8080C63
:1018900040F2F04794F90000C5F60205C2F206478F
:1018A00000211028019144D8DFE800F0091F4043CF
:1018B00043434343434343434343434357006088C5
:1018C00002286CD0012800F0C78090BB4FF4004084
:1018D000C5F8000C43F62030C2F20640D0F80310E1
:1018E000C7F84B100068B8646AE06088022856D0D8
:1018F000012800F0B180E0B94FF40060286043F6A1
:10190000203040F28051C2F20640C2F20641026825
:101910000A6042684A6082688A60C268CA60006978
:10192000086140F6B940C0F614004DE04FF4006085
:101930002860B87801284FD14FF00040C5F8000C5E
:1019400060880021B9700228217019D0002840F069
:10195000058140F2805082216BE04FF48060286066
:1019600043F62030C2F20640D0F80310C7F85210F8
:101970000068C7F84F0047F67170C0F6140023E006
:1019800040F28050AD21C2F2064080F840100D2098
:1019900041F03EFD0198002840F0E280EFE04FF476
:1019A0000040C5F8000C43F62030C2F20640017B2F
:1019B00087F874100168B9664168F966806838670D
:1019C00040F21130C0F6140001AB0021002264F097
:1019D00003FDB8780128AFD0F87801281CD14FF06A
:1019E0000060286060880021F970012101282170C1
:1019F00000F0C880002840F0B18040F28050922171
:101A0000C2F2064080F84010142041F001FD019818
:101A1000002840F0A580B2E07878012815D14FF079
:101A200080602860002078701020207040F2805084
:101A30008021C2F2064080F84010072041F0E8FC07
:101A40000198002840F08C8099E0FF2020700198D8
:101A5000002840F0858092E043F6203840F280571D
:101A6000C2F20648C2F206474FF400602860D8F878
:101A700000007861D8F80410B961D8F80800F8615E
:101A8000D8F80C1001ABD8F810000022C7E90810F4
:101A900098F81400002187F8280040F6B940C0F6F5
:101AA000140064F099FC40F24B2027F8400F4FF4EB
:101AB0000040C5F8000C02212170306820F00100C0
:101AC0003060B06920F00100B061306840F480609F
:101AD0003060B06920F48060B0614EF66870CEF27C
:101AE0000000BFF34F8F076043F20000BFF34F8F3A
:101AF000C4F20100BFF36F8F026822F0010202609E
:101B0000826822F4404282603D2246F8082C4FF45D
:101B1000746246F8082CF7604FF40472C6F824800B
:101B2000826141604168F161F1697160B16941F0C0
:101B30000101B161816841F480418160316841F007
:101B400001013160816841F400418160016841F028
:101B500001010160016841F400710160019870B1F8
:101B60004FF69C504EF66871CFF6FF70CEF2000132
:101B70004FF080520A50BFF34F8FBFF36F8F02B008
:101B8000BDE8F08140F28050B021C2F2064080F8FA
:101B90004010152041F03CFC01980028E0D1EEE710
:101BA0008820C5F600000168C90658BF7047016863
:101BB00041F01001016040F6104041F6A001C5F669
:101BC0000200C2F206410068C0F3001008707047BE
:101BD00040F6244C43F68453C4F2000CC2F2064390
:101BE0001868DCF800201968884211D01868DCF801
:101BF0000020196888421FBF1868DCF800201968A7
:101C0000884205D01868DCF8002019688842E7D1BE
:101C10004DF2C8110023C0F616010968E1FB00234C
:101C200041F6E870C2F20100C0E9042370470000E9
:101C300080B540F6244C43F68453C4F2000CC2F243
:101C400006431868DCF800201968884211D018682B
:101C5000DCF80020196888421FBF1868DCF80020F3
:101C60001968884205D01868DCF800201968884295
:101C7000E7D14DF2C81141F6E873C0F61601C2F281
:101C80000103D1F800C0D3E9041E511A4FF000023D
:101C900062EB0E02ECFB0012D3E9020C401842EB9F
:101CA0000C01C3E9020180BD80B54AF2DC43C2F2F7
:101CB00006439A7B012A1BD893F80EC08646002063
:101CC00003F80C009A7B03EB8202C2F804E09A7BD3
:101CD0001A44107393F80EC00CF101029A730CF1C0
:101CE00030020A7042F63A72A1F80120C87080BD35
:101CF000012080BD000000004AF2DC41C2F2064132
:101D00008A7B7AB100783038C0B201EB800252F899
:101D1000043F3BB10B180020106018738A7B013A16
:101D20008A737047012070472DE9F04142F2100894
:101D30000C460546C5F2002801F0C2F908F5807787
:101D4000012C04BF42F21007C5F200273968490789
:101D500014D4012C2DD10021D8F80000C1F2EE716D
:101D6000084040D04AF6A831C2F206418A690243CF
:101D70008A61C8F804000120BDE8F08175B3064609
:101D8000681C0DD138684007E3D53868400744BF68
:101D900038685FEA4070DCD538684007F2D4D8E78D
:101DA00001F08EF9801BA8422FD838684007F7D47D
:101DB000CFE70021D8F80001C1F2EE7108401DD034
:101DC0004AF6A831C2F206418A69024342F0004253
:101DD0008A61C8F804010120BDE8F08101F070F9C2
:101DE0000320BDE8F081D8F80000C0030AD54FF405
:101DF0008030C8F804000020BDE8F081D8F8000168
:101E0000C00305D40020BDE8F0810320BDE8F081C7
:101E10004FF48030C8F804010020BDE8F0810000D4
:101E20002DE9F04F81B0002981464FF0010000F00C
:101E30008A809FED631B45F200074FF6146520EE84
:101E4000010B8A46C5F2002700264FF01B0BC2F299
:101E50000545BCEEC00B4FF0000810EE104A03E041
:101E600008F10108D0456DD0C7F80CB001216868B1
:101E700062F092FA3E614FF48370786101216868E4
:101E800001220123009462F00FFBC0075ED000BF67
:101E9000B868800641BFB8685FEA8060B8685FEAEA
:101EA000806002D5B8688006F2D4C7F80CB0012172
:101EB000686862F071FA3E6142F22050786108EB86
:101EC00009000003B8616868012101220123009420
:101ED00062F0EAFAC0074BD0B868800641BFB86824
:101EE0005FEA8060B8685FEA806002D5B868800603
:101EF000F2D4C7F80CB00221686862F04DFA0120F4
:101F00007862BE620820F86240F205103E61C0F6B9
:101F1000001078610221686801220123009462F0B8
:101F2000C3FA800736D500BFB868800641BFB868DD
:101F30005FEA8060B8685FEA806091D5B868800623
:101F4000F2D48DE7012001B0BDE8F08F386840F091
:101F5000020038603868800741BF38685FEA8070E7
:101F600038685FEA807026D538688007F2D422E0AE
:101F7000386840F002003860386880071BD5386840
:101F8000800744BF38685FEA807014D538688007DE
:101F9000F2D410E0386840F00200386038688007FA
:101FA00009D53868800744BF38685FEA807002D579
:101FB00038688007F2D4002001B0BDE8F08F00BF80
:101FC00000000000000089402DE9F04F83B0002B95
:101FD00002904FF0010000F0B3809FED791B45F2B5
:101FE00000074C2420EE010B4FF614699B461002AB
:101FF000C5F20027C5F20024BCEEC00B00254FF04F
:102000001B08C2F205494FF0000A00EB013010EE48
:10201000106A019005E000BF0AF1010ADA4500F0FC
:102020008E80C7F80C800121D9F8040062F0B4F961
:102030003D614FF4837078610121D9F804000122D9
:102040000123009662F030FAC0077CD0B8688006A1
:1020500041BFB8685FEA8060B8685FEA806002D517
:10206000B8688006F2D4C7F80C800121D9F80400C2
:1020700062F092F9FF20386142F232500121C0F241
:102080000030786101980122012300EB0A20B86139
:102090001F2044F8080C1620E061029800EB0A208B
:1020A000E06007F1200020610220C0F20C20606097
:1020B0004FF48070A060206840F001002060D9F8E3
:1020C0000400009662F0F0F9C0074FD0B8688006AF
:1020D00041BFB8685FEA8060B8685FEA806002D597
:1020E000B8688006F2D4C7F80C800221D9F8040041
:1020F00062F052F901207862BD620820F86240F275
:1021000005103D61C0F6001078610221D9F8040085
:1021100001220123009662F0C7F9800738D500BF7D
:10212000B868800641BFB8685FEA8060B8685FEA57
:1021300080607FF571AFB8688006F1D46CE701204C
:1021400003B0BDE8F08F386840F00200386000BF8F
:102150003868800741BF38685FEA807038685FEA96
:10216000807026D538688007F2D422E0386840F0C5
:1021700002003860386880071BD53868800744BF84
:1021800038685FEA807014D538688007F2D410E0B0
:10219000386840F0020038603868800709D5386830
:1021A000800744BF38685FEA807002D538688007CE
:1021B000F2D4002003B0BDE8F08F00BF00BF00BF25
:1021C00000000000000089402DE9F0412DED028B58
:1021D00082B045F200054FF61468C5F200250446AA
:1021E0001002C2F20548B0EE408B00EB01361B2016
:1021F000E860D8F8040001211F0262F0CDF84FF02A
:10220000FF30012210FA87F0286142F26B5001235F
:10221000C0F2207068614C20AE61C5F200209FEDD5
:10222000260B016828EE000B21F0010101601F213F
:1022300040F8081C1621C16105F12001C160082188
:102240000461C0F20C214160BCEEC00BB9B28160E8
:10225000016841F001010160D8F8040001218DED11
:10226000000A62F021F910F0010011D1296841F053
:10227000020129602968890717D52968890744BFA1
:1022800029685FEA817110D529688907F2D40CE0CA
:10229000A968890609D5A968890644BFA9685FEAC3
:1022A000816102D5A9688906F2D402B0BDEC028B27
:1022B000BDE8F08100BF00BF0000000000008940C1
:1022C00080B5B7EE000B08460121FFF7A9FD6FF0BE
:1022D0005301002818BF0021084680BD00000000FF
:1022E0002DE9F0411C461746884656F071FE85B22E
:1022F0002DB1069E56F060FEF119A94203D96FF088
:102300001500BDE8F08180B24FF6FF72C2F20642BE
:10231000B7FBF0F1B6FBF0F0944203D902F10112E1
:1023200094420DD3B4F1005F04D30022C2F2020242
:10233000944205D3B4F1006F12D3620D402A0FD836
:10234000B7EE000B8AB2414683B22046FFF73CFF4E
:102350006FF05301002818BF00210846BDE8F08146
:10236000E20616D0B7EE000B83B247F6D0108AB261
:10237000C2F207404146FFF727FFD8B347F6D01116
:102380002046C2F207413246FEF7A7FA0020BDE818
:10239000F081BFF34F8F012E18DB4EF65C7223469F
:1023A000CEF20002202E136010DD412E03F1200337
:1023B00013600BDB612E03F12003136006DB03F1D6
:1023C0002007803E03F140031760EBDCBFF34F8F23
:1023D000B7EE000BBFF36F8F8AB2414683B220463F
:1023E000FFF7F2FE01466FF05300002918BF0020EE
:1023F000BDE8F0816FF05300BDE8F08100000000FF
:1024000000207047000000002DE9F0471D461746E8
:102410008A4656F0DDFD84B22CB1089E56F0CCFD04
:10242000F119A14203D96FF01500BDE8F08780B221
:10243000B7FBF0F9B6FBF0F74FF6FF70C2F20640BB
:10244000854203D900F1011085420DD3B5F1005F3B
:1024500004D30020C2F20200854205D3B5F1006F1B
:1024600013D3680D402810D8B7EE000B28461FFA8A
:1024700089F25146BBB2FFF7A7FD6FF05301002868
:1024800018BF00210846BDE8F087E8060FD047F6E0
:10249000D0182946C2F2074832464046FEF71DFAD8
:1024A000B7EE000B40461FFA89F2BBB226E0BFF33D
:1024B0004F8F012E18DB4EF668702946CEF20000D1
:1024C000202E016010DD412E01F1200101600BDBA7
:1024D000612E01F12001016006DB01F12002803E46
:1024E00001F140010260EBDCBFF34F8FB7EE000B50
:1024F0002846BFF36F8F1FFA89F2BBB25146FFF730
:1025000063FD01466FF05300002918BF0020BDE8AD
:10251000F0870000000000009FED2B2BB4EE421B63
:10252000F1EE10FA14DC9FED2A3BB4EE430BF1EE12
:1025300010FA0DDB9FED283BB4EE430BF1EE10FAE1
:1025400006DC9FED273BB4EE431BF1EE10FA19DADF
:102550009FED253BB4EE431BF1EE10FA14DC9FED2A
:10256000243BB4EE430BF1EE10FA0DDB9FED1A3B6A
:10257000B4EE430BF1EE10FA06DCB4EE421BF1EEC2
:1025800010FA01DB08207047B0EEC10B48F6890055
:10259000B6EE002BC8F68800B5EE401B30EE020BFD
:1025A000BDEEC00B10EE101A50FB0110C21002EB72
:1025B000D070C0EB0012891A0729C8BF0130F1EEB4
:1025C00010FAD8BF404270470000000000405F4052
:1025D0006666666666E631400000000000804A409C
:1025E0000000000000C052400000000000E0604019
:1025F000000000000000444070B544F20C064FF6A5
:102600000845C5F600060446C2F20545316889064C
:102610006DD528684FF0FF3162F0DAFD012866D1F0
:10262000D6F81CC0C5F810C056F80C2CC2F30150E7
:10263000C2F3034340EA8000C2F3023103EB400ED1
:10264000C2F3021301EB8100C2F3032103EB830306
:1026500001EB400156F8080CA97302F00F0185F850
:102660000DE001EB4301E97302EE101AC0F30351D0
:1026700072686FF3DF32A2EB0C03013200EE103A06
:1026800001EE102A01EB81017D23020CB8EEC22B72
:1026900063F31F12B8EE400BC0F30033B8EE411BDA
:1026A00002EB410CA5F808C0C0F3011180EE010B4C
:1026B00043EA8302C0F3032341EA810130EE020BB7
:1026C00003EB4202AA7200F00F0285ED060B02EB4B
:1026D0004101E972C0F3423028733068002120F0D4
:1026E0002000306028680022002362F0BDF9A8684D
:1026F0002060E86860602869A0606869E060A86997
:102700002061E869606170BD42F20C60C2F206406F
:1027100000787047000000002DE9F04F81B02DEDEA
:10272000048B00EE100A9FED381A40F6244A43F657
:10273000845BC4F2000AC2F2064BB8EE400A20EEF7
:10274000010A00BFDBF80000DAF80060DBF80010D7
:1027500088421FBFDBF80000DAF80060DBF80010E9
:1027600088421FBFDBF80000DAF80060DBF80010D9
:10277000884207D0DBF80000DAF80060DBF80010D0
:102780008842DFD1B7EEC08A6FF00F080027E0FB68
:1027900008670FF2640900BFDBF80010DAF80000E8
:1027A000DBF800209142F7D10022E1FB080200256E
:1027B000331A77EB020438BF0125801B62EB070157
:1027C0004A46002D18BF083204BF2146184692ED34
:1027D000009B66F01BFA41EC100B29EE000BB4EEE7
:1027E000480BF1EE10FAD7DBBDEC048B01B0BDE86D
:1027F000F08F00BF00BF00BF48AFBC9AF2D77ABECF
:1028000048AFBC9AF2D77A3E6F12833A00000000BC
:1028100040F22040C5F60000016841F0010101606E
:1028200070470000000000002DE9F04F81B04AF62B
:10283000A838C2F20648D8F81420012A04D102268A
:10284000304601B0BDE8F08F82460120C8F8140080
:102850000020C8F818008946DAF80400C10703D13F
:1028600080071AD500240FE04CF250300121FFF709
:102870005BFA9AF804100446002818BF012489075F
:1028800002D450B10126F1E04CF250300221FFF7A2
:102890004BFA204301D00126E8E0DAF800000128D5
:1028A00027D1DAF8040042F20C0400F00301C5F26B
:1028B00000240329DAF8102040F08880216821F0F4
:1028C00030012160D4F8001121F03001C4F800116A
:1028D000216811432160D4F800111143C4F800119C
:1028E000E16841F01001E16000F00101002973D1BD
:1028F000ABE04FF0FF30C9F80000DAE9027038446D
:10290000874261D242F20C053C02C5F2002540F23A
:10291000047B00BFDAF80410DAF8102011F001008F
:1029200006D111F0020115D150BB0026B9BB42E01F
:102930002B6842EA040623F4E6632B602B683343DA
:1029400043F004032B602B6843F080032B6011F0ED
:102950000201E9D0D5F80031224323F4E663C5F83B
:102960000031D5F800311A4342F00402C5F80021C5
:10297000D5F8002142F08002C5F800210028D4D00B
:102980004CF250300121FFF7CFF92968064621EAC1
:102990000B012960DAF8041001F0020159B14CF280
:1029A00050300221FFF7C0F90646D5F8000120EAB1
:1029B0000B00C5F800010EBBDAE90201013708443B
:1029C000874204F58074A5D300264FE010F0010182
:1029D00017D1830724D4C1B34CF250300121FFF743
:1029E000A3F906460028206820F00800206018BFE0
:1029F0000126DAF80400800738D529E0C9F800700C
:102A000034E0236823F0300323602368134343F04A
:102A100008032360236843F0800323608307DAD52B
:102A2000D4F8003123F03003C4F80031D4F8003179
:102A30001A4342F00802C4F80021D4F8002142F001
:102A40008002C4F800210029C6D1002680070DD5D8
:102A50004CF250300221FFF767F9002818BF012619
:102A6000D4F8000120F00800C4F800010020C8F8E4
:102A70001400304601B0BDE8F08F000000000000F7
:102A800042F20C00C5F20020016841F00101016032
:102A90000168C90701D101207047D0F8001141F049
:102AA0000101C0F80011D0F80001012121EA000065
:102AB00070470000000000002DE9F04F81B04AF699
:102AC000A839C2F20649D9F81400012803D102201E
:102AD00001B0BDE8F08F42F210088A4693460C46DA
:102AE000C5F2002801206FF3130AC9F81400002072
:102AF000C9F8180000F0E4FA08F58077BAF1006F21
:102B000004BF42F21007C5F20027396849070BD508
:102B100006464CF2503500BF00F0D2FA801BA842A6
:102B200028D838684007F7D40026BAF1006FC1F200
:102B3000EE760BD1D8F80000304022D0D9F818102A
:102B40000143C9F81810C8F804000CE0D8F80001D7
:102B5000304022D0D9F81810014341F00041C9F8A3
:102B60001810C8F8040101200021C9F8141001B0A0
:102B7000BDE8F08F03200021C9F8141001B0BDE8B2
:102B8000F08F404650F80419C90310D54FF4803037
:102B9000C8F80400A8F1040009E0D8F80001C00357
:102BA00008F1FC0003D54FF48031C8F80411016826
:102BB00041F002010160BFF36F8FBFF34F8FDBF86D
:102BC00000002060DBF804006060DBF80800A06013
:102BD000DBF80C00E060DBF810002061DBF814008B
:102BE0006061DBF81800A061DBF81C00E061BFF356
:102BF0006F8FBFF34F8F00F063FA396849070BD529
:102C000004464CF2503500BF00F05AFA001BA842AF
:102C100021D838684007F7D4BAF1006F0CD1D8F842
:102C2000000030401DD0D9F818100143C9F8181021
:102C3000C8F80400012034E0D8F80001304016D074
:102C4000D9F81810014341F00041C9F81810C8F82C
:102C50000401012014E0BAF1006F4FF003000FD11E
:102C60001FE0D8F80000C00316D4002019E0D8F8FF
:102C70000001C00303D54FF48030C8F804010020E0
:102C8000D8F8FC1021F00201C8F8FC100021C9F8A6
:102C9000141001B0BDE8F08F4FF48030C8F8040084
:102CA000002058F8041C21F0020148F8041C0021FF
:102CB000C9F8141001B0BDE8F08F0000000000005A
:102CC00042F20400C5F200208168C9070CD040F22E
:102CD0002311C4F26751016048F6AB11CCF6EF51F5
:102CE00001608168C90715D1D0F80811C9070FD054
:102CF00040F22311C4F26751C0F8001148F6AB113D
:102D0000CCF6EF51C0F80011D0F80801C00701D18E
:102D100000207047012070472DE9F04F002908BFBF
:102D2000BDE8F08F00F1264242F2004302F1FF7746
:102D3000C5F602030A2598424FF0000308BF092593
:102D4000B3EBB72F74D04FEAB72700247E1E082EAE
:102D50004FF0010638BF3D4600272BE003220368F1
:102D600002FA04F96FF0030202EA580543EA090384
:102D70000544036007F01C030F2202FA03FE2B6ACE
:102D800023EA0E032B6283685D4623EA090383600E
:102D9000436823EA0C034360C36823EA0902C26064
:102DA00031FA06F206F1010607F1040704F1020404
:102DB00000F0A680A6F10108012202FA08FC1CEA34
:102DC0000109EDD040F208424FEA980AC5F6000228
:102DD00007F00C0352F82AB00F2202FA03FE0BEAA6
:102DE0000E0205FA03F3AB469A42B7D140F208430C
:102DF0004FF0B045C5F6000353F82A2022EA0E0230
:102E000043F82A200423C5F60003DA6F22EA0902F8
:102E1000DA67D3F8802022EA0902C3F880202A6802
:102E200022EA09022A601A6822EA09021A6095E772
:102E30000025002401264FF00F0C27E00322D0F8D4
:102E400000E002FA04F36FF0030202EA57074EEAC9
:102E500003020744026005F01C020CFA02FE3A6A03
:102E600022EA0E023A6282689A438260426822EA4B
:102E70000B024260C2689A43C26031FA06F206F160
:102E8000010604F1020405F1040539D0771E012280
:102E900002FA07FB1BEA010EEFD040F208424FEAAC
:102EA0009708C5F6000205F00C030CFA03F952F876
:102EB00028A01AEA090FC1D140F20842C5F6000263
:102EC00052F8283023EA090342F8283004224FF050
:102ED000B048C5F60002D36F23EA0E03D367D2F8D9
:102EE000803023EA0E03C2F88030D8F8003023EA9D
:102EF0000E03C8F80030136823EA0E0313609DE741
:102F0000BDE8F08F000000002DE9F04F82B00E68A0
:102F1000002E00F0C78000F126420A2702F1FF735D
:102F200042F20042C5F602024FEAB324904240F258
:102F3000040E08BF0927092CC5F6000E38BF4FEA5A
:102F4000B3274FF0010C002400970025012709E06A
:102F50000E68043536FA07F207F1010704F102049E
:102F600000F0A080A7F101090CFA09FB16EA0B0892
:102F7000EED04E6846F01003122B15D16FF003020D
:102F80000F2602EA590305F01C0203449640D3F8C9
:102F900020A0D1F810C02AEA06060CFA02F2324349
:102FA0001A624FF0010C4E6803220368A240122EF1
:102FB0006FEA020A23EA020206F0030303FA04F3AB
:102FC00042EA0302026013D80CFA06F212F0061F5E
:102FD0000ED08268CB6802EA0A02A3401A438260DC
:102FE0004268330922EA0B0203FA09F31A434260EA
:102FF000C2688B68A34002EA0A02F60042EA0302B2
:10300000C260A5D544F2F4430F26C5F602031A6840
:1030100042F002021A601A6802F00202019229F0DC
:10302000030240F20849C5F60009019B05F00C03B4
:1030300052F809C09E402CEA060C009E06FA03F3E3
:1030400043EA0C0342F80930DEF87CC04B684CEAD6
:103050000806DA0358BF2CEA08069A034FF0B04975
:10306000CEF87C60DEF880C04CEA080658BF2CEA37
:103070000806DA02CEF88060D9F800C04CEA0806EB
:1030800058BF2CEA08069B024FF0010CC9F80060FB
:10309000DEF8002042EA080658BF22EA0806CEF809
:1030A000006055E702B0BDE8F08F000000000000AE
:1030B00041F20000C5F600400068000C70470000B7
:1030C00040F6244C43F68453C4F2000CC2F206438B
:1030D0001A68DCF8000019688A4211D01A68DCF816
:1030E000000019688A421FBF1A68DCF800001968DE
:1030F0008A4205D01A68DCF8000019688A42E7D1D4
:103100006FF00F010023E2FB01039FED0D1B00EEAA
:10311000103A02EE100A9FED0C3BB8EE400BB8EEF1
:10312000422B20EE010B02EE030B9FED091B20EE5C
:10313000010BBCEEC00B10EE100A704700BF00BFC1
:1031400048AFBC9AF2D77A4048AFBC9AF2D77A3EE1
:103150000000000000408F4080B501F061F844F2AB
:10316000184149F69A73C5F60201C0F616034FF6E8
:10317000000C0A68C2F2054CC2F303229A5C02F00A
:103180001F02D040CCF8000009684FF6040201F09D
:103190000F01C2F20542595C01F01F01C8401060E6
:1031A000002000F009F800281CBF012080BD00F0BD
:1031B00057F8002080BD000000207047000000008C
:1031C000B0B502784EF69C5CCEF2000C43784CF819
:1031D000043CF2B14368CCF80030037BC17A90F82C
:1031E0000AE0457B447A42EA0372837B42EA01614A
:1031F000C27B41EACE41007A41EA854141EA43413E
:1032000041EA024141EA042141EA4000CCF80400CD
:10321000B0BD0020CCF80000CCF80400B0BD000028
:103220004EF62450CEF20000BFF35F8F016821F408
:10323000803101600021016770470000000000003C
:103240004EF6245140F00100CEF2000108670868F4
:1032500040F480300860BFF34F8FBFF36F8F70472B
:1032600081B044F2F4400022C5F60200016841F04A
:103270000201016000680F2100F0020000906FF071
:103280000100009B01B000F027B800000000000022
:10329000002848BF70474EF2801300F01F0140091C
:1032A000CEF20003012202FA01F143F82010BFF32D
:1032B0004F8FBFF36F8F7047002848BF70474EF2A3
:1032C000001300F01F014009CEF20003012202FAB0
:1032D00001F143F82010704770B54EF60C5C4FF0CA
:1032E000FF36CEF2000C00F16045DCF80030C3F38D
:1032F000022E8EF00703042B28BF0423BEF1030423
:1033000006FA03F321EA030100F00F0338BF00249B
:10331000043BB0F1FF3F634406FA04F003F10C03F1
:1033200001FA04F1C8BF05F5644322EA000008432E
:103330000001187070BD00004EF60C514FF6FF03EF
:10334000CEF200010A681A4060F30A2242F080605F
:1033500040F0FD7008607047B0B544F60C05C5F646
:1033600002052968490704D4296801F00701814250
:1033700016D1296821F0070108432860FFF7A0FE55
:10338000044600BF55F8080C800407D4FFF798FEE8
:10339000001BB0F57A7FF5D90320B0BD0020B0BD89
:1033A0000120B0BD0000000044F60C00C5F602008C
:1033B000016841F08071016070470000000000006A
:1033C00044F60000C5F60200016841F48071016016
:1033D00070470000000000002DE9F0470446C07867
:1033E00044F22C480007C5F6020841D5606E4FEA4A
:1033F000305103290AD8DFE801F0020E2B34D8F847
:10340000001041F40031C8F800102AE0012660786D
:10341000C00709D030E0201D022102F0E9F906467C
:10342000F0B16078C00727D135463746607880070D
:103430003AD43E46607840074ED4B14660780007E3
:1034400000F164804F46E078800740F1518177E0D9
:1034500004F12400022102F05BFA06460028E0D1C4
:10346000606ED8F8241021F440110843C8F82400F5
:1034700000266078C007D7D0606D042800F2A280D3
:103480003546DFE800F003A6AB0A0A00D8F80000D2
:10349000354640F40030C8F80000002D2F4600F0FB
:1034A000A78060788007C4D5A06D4FEAB0100428CB
:1034B00000F2AD80DFE800F003B2B7090900D8F8E8
:1034C000000040F40030C8F80000002D2E4600F047
:1034D000B48060784007B0D5D4F8A4004FEA7050AB
:1034E000042800F2B980DFE800F003BFC409090036
:1034F000D8F8000040F40030C8F80000002DA946BC
:1035000000F0C180607800077FF59CAFD4F8A80078
:103510004FEA3060042800F2C680DFE800F003CBF9
:10352000D0090900D8F8000040F40030C8F80000C5
:10353000002D2F4600F0CD80E078800740F1D88044
:10354000A06C4FEA3010032819D8DFE800F0021F02
:1035500029022E4665B36078C00600F1CE8037465A
:103560006078800600F1E2803E466078400600F117
:10357000F08037466078000640F1A481FDE0012527
:1035800001266078C00600F1B880E8E7D8F80000AE
:1035900040F40030C8F80000002D2E46DBD107E0D3
:1035A000201D022102F024F90546002D2E46D2D11D
:1035B000D8F82000A16C20F0300000250843C8F89E
:1035C000200095E001250127607880073FF56CAF6A
:1035D0002FE7201D002102F00BF904E004F1240084
:1035E000002102F095F90546002D2F467FF459AFD2
:1035F000D8F82400616D20F0070000250843C8F8C2
:1036000024003746607880077FF513AF4CE701252B
:103610000126607840073FF55FAF0EE7201D0021CF
:1036200002F0E6F804E004F12400002102F070F951
:103630000546002D2E467FF44CAFD8F82400A16D2E
:1036400020F4E07000250843C8F824003E46607866
:1036500040077FF5F2AE3FE701254FF001096078A2
:1036600000073FF553AFEDE6201D002102F0C0F842
:1036700004E004F12400002102F04AF90546002D7F
:10368000A9467FF43FAFD8F82C00D4F8A41020F45A
:10369000600000250843C8F82C00B1466078000798
:1036A0007FF5D0AE32E701250127E07880073FF5AE
:1036B00047AF1DE0201D002102F09AF804E004F15C
:1036C0002400002102F024F90546002D2F467FF446
:1036D00033AFD8F82C00D4F8A81020F0E060002513
:1036E0000843C8F82C004F46E07880073FF528AF24
:1036F0003E466078C0067FF532AFE06D4FEA30306D
:10370000042800F26780DFE800F0036B700909000D
:10371000D8F8000040F40030C8F80000002D2F4613
:1037200000F06D80607880067FF51EAF206E4FEA56
:103730003040052800F27280DFE800F00377810353
:103740000303002D2E4600F08480607840067FF54C
:1037500010AFD4F8AC004FEA3070052800F2888032
:10376000DFE800F0038D97030303002D2F4600F0E0
:103770009A806078000640F1A580E06E58B1B0F103
:10378000005F0FD0B0F1805F1ED1D8F8000040F488
:103790000030C8F800002E4665B1E078C00700F0A0
:1037A000C48093E0201D012102F022F80546002D7F
:1037B0002E46F2D1D8F82400E16E20F040500025CA
:1037C0000843C8F824007DE001250126E078C00701
:1037D0007CD1AAE00125012760788006A6D4C3E643
:1037E000201D002102F004F804E004F1240000216F
:1037F00002F08EF80546002D2F467FF493AFD8F8DF
:103800002400E16D20F4E04000250843C8F82400BE
:103810003746607880067FF5A7AE87E70125012649
:10382000607840063FF595AFA3E6201D012101F029
:10383000DFFF0546002D2E467FF487AF09E004F137
:103840002400012102F064F80546002D2E467FF485
:103850007CAFD8F82400216E20F4E0200025084336
:10386000C8F824003E46607840067FF582AE70E7D7
:1038700001250127607800063FF57FAF22E0201D7B
:10388000012101F0B5FF0546002D2F467FF471AFF1
:1038900009E004F12400012102F03AF80546002D68
:1038A0002F467FF466AFD8F82C00D4F8AC1020F087
:1038B000E04000250843C8F82C0037466078000631
:1038C0003FF55BAF3E46E078C0072ED0606C032822
:1038D00009D8DFE800F0020F1902A946E5B1A07887
:1038E000400628D425E001254FF00109A0784006C4
:1038F0001FD520E0D8F8000040F40030C8F80000E0
:10390000002DA946EBD107E0201D022101F070FF38
:103910000546002DA946E2D1D8F82000616C20F0C0
:10392000030000250843C8F82000B146A0784006EF
:1039300001D44F4617E0D8F8D40340F48070C8F89B
:10394000D403FFF7BDFB0646D8F8D403C00507D45F
:10395000FFF7B6FB801B6428F6D90325032702E096
:10396000002D2F466DD02078C00700F0BD80A06FDD
:103970004FEAF000052800F29480DFE800F0039899
:10398000A2030303002D2E4600F0A58020788007B7
:1039900000F1AF8037462078400700F1BE803E46F8
:1039A0002078800600F1CE8037462078400600F16E
:1039B000E0803E462078000600F1F280374620681D
:1039C000010740F10481D4F88010B1F5805F0CD17B
:1039D00004F12400022101F09BFF002818BF0127F9
:1039E0002068C10640F1F68009E0D8F8282022F4CA
:1039F00040521143C8F82810C10640F1EB80D4F8BA
:103A00009410B1F5807F11D104F12400022101F05E
:103A10007FFF002818BF01272068000300F1DD8028
:103A20003E46A078400740F13081EFE0D8F82C20E6
:103A300022F440721143C8F82C10000300F1CD802D
:103A4000EEE7D8F84410D4F8B000414011F4407FBC
:103A500011D0D8F84410D8F8442042F48032C8F885
:103A60004420D8F8442021F4407122F48032C8F870
:103A70004420C8F84410B0F5807F40F08B82FFF7F7
:103A80001FFB064641F2883A03250327D8F8440075
:103A9000800700F17D82FFF713FB801B5045F5D9AD
:103AA00061E7012501262078800722D472E7201DD6
:103AB000012101F09DFE0546002D2E467FF466AFE4
:103AC00009E004F12400012101F022FF0546002D48
:103AD0002E467FF45BAFD8F82800A16F20F03800A5
:103AE00000250843C8F828003E46207880077FF567
:103AF00051AF606F052800F27581DFE810F0060015
:103B00007A018401060006000600002D2F4600F011
:103B10008481207840077FF542AFD4F890000528D3
:103B200000F28A81DFE810F006008F01990106009B
:103B300006000600002D2E4600F0998120788006B0
:103B40007FF532AFD4F88C004FEA3070052800F2D0
:103B50009E81DFE810F00600A301AD01060006001B
:103B60000600002D2F4600F0AD81207840067FF53D
:103B700020AFD4F898004FEAB020052800F2B281B7
:103B8000DFE810F00600B701C101060006000600DC
:103B9000002D2E4600F0C181207800067FF50EAF83
:103BA000D4F89C004FEA7030052800F2C681DFE8A7
:103BB00010F00600CB01D501060006000600002D1E
:103BC0002F4600F0D581206801073FF5FCAEC10605
:103BD0003FF515AF00037FF523AFD4F8A000B0F593
:103BE000003F0ED0B0F5803F05D0A8BB201D0021BE
:103BF00001F0FEFD04E004F12400022101F088FE42
:103C000005462E46CDB1A07840073ED5D4F88400B5
:103C1000B0F5401F0BD0B0F5001F23D0B0F5801FCA
:103C200072D1D8F8000040F40030C8F800002F46E8
:103C30000DB3A078C0072CD16BE0D8F82C00D4F8D5
:103C4000A01020F4403000250843C8F82C003E4660
:103C5000A078400719D5D9E701260125A0784007AB
:103C6000D4D412E004F12400012101F051FE0546F4
:103C7000002D2F46DDD1D8F82800D4F8841020F488
:103C8000401000250843C8F828003746A078C00730
:103C90003FD0E06CB0F5803F1ED078BBD8F8000074
:103CA00040F40030C8F800002E46EDB120688100D5
:103CB00033D481033CD4C10250D4C10058D4810212
:103CC00061D4410069D4B0F1FF3F77DD002E18BF09
:103CD00001263046BDE8F087201D022101F088FD55
:103CE0000546002D2E46E1D1D8F82000E16C20F4E5
:103CF000803000250843C8F820000AE0012601258D
:103D000020688100D5D508E001270125A078C007EB
:103D1000BFD13E4620688100CBD504F124000221AA
:103D200001F0F6FD002818BF012620688103C2D5E6
:103D3000E16F6FF0010202EB3122022A0AD34FEA4F
:103D400031223AB1012A06D1D8F8002042F40032DB
:103D5000C8F80020DDB30126C102AED5D8F8241082
:103D6000226F21F000411143C8F82410C100A6D5EC
:103D700058F81C1CD4F8B42021F48041114348F8B1
:103D80001C1C81029DD5D8F82410A26E21F08071F0
:103D90001143C8F82410410095D558F81C1C21F493
:103DA000004148F81C1CD4F8B81058F81C2C1143DA
:103DB00048F81C1CB0F1FF3F3FF788AFD8F820004F
:103DC000216D20F040500843C8F820007EE7D8F865
:103DD000282022F440721143C8F82810C1027FF550
:103DE0006CAFBBE701250127207840073FF595AE72
:103DF000D5E5201D012101F0FBFC0546002D2F46D5
:103E00007FF487AE09E004F12400012101F080FD78
:103E10000546002D2F467FF47CAED8F82800616F50
:103E200020F0070000250843C8F82800374620780E
:103E300040077FF5B4AD70E60126012520788006A5
:103E40003FF580AEB0E5201D012101F0D1FC054613
:103E5000002D2E467FF472AE09E004F1240001210A
:103E600001F056FD0546002D2E467FF467AED8F8CA
:103E70002C00D4F8901020F0070000250843C8F863
:103E80002C003E46207880067FF58EAD5AE601274D
:103E90000125207840063FF56CAE8AE5201D002103
:103EA00001F0A6FC0546002D2F467FF45EAE09E02A
:103EB00004F12400022101F02BFD0546002D2F46C0
:103EC0007FF453AED8F82800D4F88C1020F0E040EE
:103ED00000250843C8F828003746207840067FF5BB
:103EE00068AD46E601260125207800063FF558AE6C
:103EF00064E5201D002101F07BFC0546002D2E46C7
:103F00007FF44AAE09E004F12400022101F000FD33
:103F10000546002D2E467FF43FAED8F82C00D4F88D
:103F2000981020F4E05000250843C8F82C003E46C5
:103F3000207800067FF542AD32E601270125206892
:103F400001077FF544AE3EE5201D002101F050FC45
:103F50000546002D2F467FF436AE09E004F124001B
:103F6000022101F0D5FC0546002D2F467FF42BAE33
:103F7000D8F82C00D4F89C1020F4604000250843A9
:103F8000C8F82C003746206801077FF520AE1AE5F7
:103F9000D4F8B0004FF6CF7358F81C2CC0F2FF03D2
:103FA00000F4407122F47C5203EA10136FF31F30C7
:103FB000B1F5407F08BF1A43002548F81C2CD8F8FB
:103FC00044100843C8F84400B3E4000000000000B7
:103FD0002DE9F04381B0002800F01B8142F2000877
:103FE0000446C5F200288946D8F8000000F00F000A
:103FF00088420ED2D8F8000020F00F0040EA0900F5
:10400000C8F80000D8F8000000F00F00484540F064
:104010000081206844F218474107C5F602070AD517
:1040200021693A6802F07002914204D93A6822F09C
:1040300070021143396001070AD561697A6802F09C
:104040007002914204D97A6822F0700211437960BB
:10405000C1060AD5A1697A6802F4E062914204D9E6
:104060007A6822F4E0621143796081060AD5E16939
:10407000BA6802F07002914204D9BA6822F0700264
:104080001143B96010F002010AD0E2683B6803F006
:104090000F039A4204D93B6823F00F031A433A6096
:1040A000C20745D0386820F47061D4E901020128C4
:1040B00041EA0201396009D003280DD0022811D14C
:1040C00057F8181C890340F1A48010E057F8181C19
:1040D000C90540F19E800AE057F8181C890140F19B
:1040E000988004E057F8181C490740F1928057F86F
:1040F000081C21F00701084347F8080CFEF7E0FF11
:10410000064641F2883500BF57F8080C616800F098
:104110003800B0EBC10F08D0FEF7D2FF801BA842D9
:10412000F2D9032001B0BDE8F083206800F002015D
:1041300051B1E1683A6802F00F02914204D23A6844
:1041400022F00F0211433960D8F8001001F00F017E
:1041500049450DD9D8F8001021F00F0141EA0901B5
:10416000C8F80010D8F8001001F00F01494550D1EF
:1041700041070AD521693A6802F07002914204D2DF
:104180003A6822F070021143396001070AD561696B
:104190007A6802F07002914204D27A6822F07002CA
:1041A00011437960C1060AD5A1697A6802F4E06218
:1041B000914204D27A6822F4E06211437960800669
:1041C0000AD5E069B96801F07001884204D2B96883
:1041D00021F070010843B86000F022F8396849F610
:1041E0009A72C0F616024FF60003C1F30321C2F221
:1041F0000543515C01F01F024FF60801C2F2054170
:10420000D04018600968084601B0BDE8F043FEF7E9
:10421000D3BF012001B0BDE8F08300000000000022
:1042200044F20041C5F602010869C0F3C200032848
:104230000FD002282AD070BB0868800649F200001F
:10424000C0F2D03058BF70470968C1F3C101C840FF
:1042500070478A6A886AC0F3051CC86ABCF1000FFF
:104260004B6B1DD0C3F3CC0300F00100584302F0A8
:104270000302022A00EE100AB8EE400A12D0A2B9D8
:104280000868800614D49FED261A1EE042F2004012
:10429000C0F2F400704740F60010C0F23D007047D5
:1042A000002070479FED1D1A0FE09FED1B1A0CE0D8
:1042B000086849F20002C0F2D032C0F3C10022FA0D
:1042C00000F001EE100AB8EE411A086B9FED153AA6
:1042D0006FF35F2002EE100A086BC0F34620B8EEC1
:1042E000422A013000EE032A00EE10CAB7EE003A6F
:1042F000B8EE400A81EE000A32EE031A20EE010AFF
:1043000001EE100AB8EE411A80EE010ABCEEC00AB6
:1043100010EE100A704700BF0024744A0024744B4A
:104320000024744C00000039F0B581B0002800F082
:104330000E810446007844F20046C007C5F6020626
:1043400012D0306900F03801B06A102905D0182960
:104350002DD100F00300022829D13068800303D555
:104360006068002800F0F3802078800740F19C808E
:10437000306910F03801B06A2AD0182908BF5FEA06
:10438000807025D0E0683168002849D021F01901FB
:1043900008433060FEF794FE054600BF30684007D2
:1043A00031D4FEF78DFE401B0228F7D90BE160687F
:1043B000002846D0B0F5A02F5AD0B0F5803F5BD092
:1043C000306820F480303060306820F4802056E07F
:1043D00030684007E06802D5002800F0B8803168F6
:1043E00021F0190108433060FEF76AFE054600BF60
:1043F0003068400707D4FEF763FE401B02284FF0E9
:104400000300F5D979E1FEF753FE41F2030188423A
:10441000706843D8216920F47C3040EA013042E0E2
:1044200021F001003060FEF74BFE05463068400782
:104430003AD5FEF745FE401B02284FF00300F5D9A0
:104440005BE1306820F480303060306820F48020F8
:104450003060FEF735FE0546306880037FF584AF97
:10446000FEF72EFE401B64284FF00300F4D944E110
:10447000306840F480203060306840F48030306034
:10448000FEF71EFE054600BF306880033FF56CAFA7
:10449000FEF716FE401B6428F6D994E0216920F04F
:1044A000FE4040EA016070602078C0063CD530696B
:1044B00000F03801B06A082905D0182917D100F09A
:1044C0000300012813D13068C00502D5E0698028B7
:1044D0003DD1FEF7EDFD41F2030188421DD8706821
:1044E000216A20F0F84040EA816070601CE0E069D9
:1044F0000028306800F09C8040F080003060FEF7BB
:10450000DFFD05463068C005E3D4FEF7D9FD401B4A
:1045100002284FF00300F5D9EFE0F068216A20F09F
:104520007C5040EA0160F0602078000712D42078C7
:10453000800622D42078400733D4656A002D00F02D
:104540003D81306900F03800182840F08380012058
:1045500001B0F0BD60690028706F37D040F00100F5
:104560007067FEF7ADFD0546706F8007DFD4FEF77C
:10457000A7FD401B0228F7D925E0A0690028306874
:1045800044D040F480503060FEF79AFD054600BFED
:1045900030688004CED4FEF793FD401B0228F7D983
:1045A00011E0D6F8000440F48070C6F80004FEF76D
:1045B00087FD0546D6F80004C00518D4FEF780FD37
:1045C000401B6428F6D9032001B0F0BD20F00100A3
:1045D0007067FEF775FD0546706F8007A7D5FEF77B
:1045E0006FFD401B02284FF00300F5D985E0A0685D
:1045F000002851D0052868D001286AD0306F20F0FB
:1046000001003067306F20F0040065E020F4805036
:104610003060FEF755FD0546306880047FF58AAFAF
:10462000FEF74EFD401B02284FF00300F4D964E072
:1046300020F080003060FEF743FD05463068C0057D
:104640007FF572AFFEF73CFD401B02284FF00300E0
:10465000F4D952E0306820F080703060FEF730FD11
:10466000022D05460CD100BF3068800147D5FEF70A
:1046700027FD401B02284FF00300F5D93DE000BFA5
:104680003068800140F19A80FEF71AFD401B032834
:104690004FF00300F4D330E0306F20F001003067BA
:1046A000306F20F004003067FEF70AFD054641F246
:1046B0008837306F80077FF540AFFEF701FD401B64
:1046C000B8424FF00300F4D917E0306F40F0040017
:1046D0003067306F40F001003067FEF7F1FC0546AF
:1046E00041F28837306F80073FF527AFFEF7E8FCCF
:1046F000401BB8424FF00300F4D901B0F0BD04F103
:104700002807B06A40F2F33188438ECF0843591E20
:1047100040EA02104FF47E426FF35F21B06202EB79
:1047200047204FF4FE0280B2E36B0844A16B02EB1A
:1047300001414FF0FE4201F4FE0102EB0362084426
:1047400002F0FE4108443063F06A4FF6F87120F041
:104750000100F062706BA26C884340EAC200706393
:10476000F06A216C20F00C000843F062F06A616C82
:1047700020F002000843F062F06A40F48030F062FA
:10478000F06A40F40030F062F06A40F48020F06299
:10479000F06A40F00100F062306840F080703060F4
:1047A000FEF78EFC04463068800107D4FEF788FCD3
:1047B000001B02284FF00300F5D99EE7002001B04E
:1047C000F0BD000000000000704700000000000085
:1047D000704700000000000070470000000000006B
:1047E000704700000000000070B584B0044603204C
:1047F0000E462063A06B032811D14FF08050616BEF
:1048000008436063606B80B3206840F6FF71C1F6B7
:10481000E071816301200121216304B070BD9EB36A
:10482000B6F5004FE9D0B6F5804F43D10020002106
:10483000CDE90200206801F0CFFC80013DD402A93F
:10484000204601F0FDFC0028D9D19DF80E0040075C
:104850002DD5616C2068090401F0F2F80028CED152
:104860002068022101F060F9C9E76569A268616802
:10487000032D236925D8A06DB0F5007F21D0B0F5B8
:10488000807F1DD102251CE000200021CDE902001F
:10489000206801F0A1FC80010FD402A9204601F09C
:1048A000CFFC0028ABD19DF80E00C00714D14FF00B
:1048B0008060A4E74FF00060A1E74FF400609EE73E
:1048C00004252068CDE90035334601F089FC00203D
:1048D0000121216304B070BD616C2068090401F0FE
:1048E000AFF800287FF48BAF2068002101F01CF99D
:1048F00085E700000000000068B110B50446032001
:104900002063206801F080FC204600F095FC002028
:104910006063206310BD01207047000000000000AC
:10492000704700000000000080B5D0F838C0D0E922
:10493000173EBCF1010F4FEA93720A70C3F3836212
:104940004A70C3F301628A704FEA1342CA704FEA99
:1049500013220A714B714FEA1E52CA80CEF30342F2
:104960000A72CEF3C0324A72CEF380328A72CEF32C
:104970004032CA72CEF300320A734FF000024A731B
:1049800037D0BCF1000F40F0888040F6FC72436ED7
:1049900002EA8E0242EA93720A61426EC2F3C26375
:1049A0000B75C2F302634B75C2F342538B75C2F3AE
:1049B0008243CB75C2F3C2330B76D1F810C00B7EA5
:1049C0000CF1010C03F0070302330CFA03FCC0F8EE
:1049D00048C00B7A03F00F0E012303FA0EF3C364F1
:1049E0004FEA532E0EFB0CF303654FF4007343653F
:1049F00012E00EF03F02B0F8663043EA02420A616C
:104A00000A694FF4806303EB822282644FF40073DF
:104A1000C0E91332426E4365C2F380334B76C2F372
:104A2000C6138B7602F07F02CA76806EC20F0A77B9
:104A3000C0F341724A77C0F382628A77C0F383522F
:104A4000CA77C0F3405281F82020C0F3004300220F
:104A500081F8212081F82230C0F3C03381F823305F
:104A6000C0F3803381F82430C0F3403381F825301F
:104A7000C0F3003381F82630C0F3812381F827305A
:104A8000C0F3012381F82830C0B2400881F8290022
:104A9000012081F82A00104680BD016840F6FF72AF
:104AA000C1F6E0728A630122416B41F0805141639B
:104AB0000263104680BD00000246806B0860D36B25
:104AC000106C4B60536CC1E90203906C0861D06CB0
:104AD0004861106D88610020526DCA617047000006
:104AE00010B5416C04460068090401F0C1F920B119
:104AF000616B08436063002010BD2068002101F055
:104B00006BFBC0F3432010BDF0B597B00D460446D3
:104B1000FEF7D6FA06462068002101F05DFB800111
:104B200022D42068402100F0EBFFD0B9616C2068EE
:104B3000090400F085FFA0B94FF0FF30119040202C
:104B400012906020139002201490002015900120F4
:104B50001690206811A901F06FFA206801F00CFA94
:104B600088B1616B616301E04FF40060216840F639
:104B7000FF72C1F6E0728A63616B084360630120D3
:104B8000206317B0F0BD01AF07E000BFFEF798FA51
:104B9000801B01304FF00040E8D02068416B11F4D9
:104BA000957F416B22D10904F0D501F03DFB3860BF
:104BB000206801F039FB7860206801F035FBB860AF
:104BC000206801F031FBF860206801F02DFB3861AE
:104BD000206801F029FB7861206801F025FBB861AD
:104BE000206801F021FBF8612037CFE7090747D49F
:104BF000416B890746D4416B890645D4416BC90492
:104C00000CD501F011FB3860FEF75AFA801B013019
:104C10003CD020680437416BC904F2D440F63A71A5
:104C200001ABC1F6000181630FCBC7B2BE092E7084
:104C3000C7F340176FF0FF066F7006EA102747EAC8
:104C40001060688008BA68602A72100AD9B2687267
:104C5000C2F30350A87206EA12400844A881C3F3C5
:104C60008520A873C3F30120E8730809287403F0B2
:104C70000F0068749DF81700A874002017B0F0BDED
:104C8000082073E7022071E720206FE74FF0004013
:104C90006CE700000000000070B582B004460068B8
:104CA000E56A416B15F0080618BF11F400415CD1AC
:104CB000416BC90500F18480416B002E18BF11F4CF
:104CC000804140F0C180416B11F03A0F416B00F020
:104CD0000281890700F10381416B090700F1078117
:104CE000416B890600F10B81416BC90603D5616BED
:104CF00041F01001616340F63A71C1F60001816331
:104D0000C16B21F49D71C163C16821F04001C16094
:104D1000C16A41F40051C162C16841F08001C160C3
:104D200001F03EF92168626B10436063C868002E91
:104D300020F08000C8604FF40060886340F0E88095
:104D4000280640F1CA80606B002800F0C680C86B5E
:104D500020F08050C86300200865012020632046B1
:104D600002B0BDE87040FFF7DBBDA16A2029C0F0AA
:104D7000B480656A01F058FA2860206801F054FA9E
:104D80006860206801F050FAA860206801F04CFAD1
:104D9000E860206801F048FA2861206801F044FAD0
:104DA0006861206801F040FAA861206801F03CFACF
:104DB000E86105F120006062A06A2038A0628CE002
:104DC0004FF480718163C16B4CF23A129143C1631D
:104DD000C16B21F08051C163C16821F04001C16005
:104DE0009EB9290679D515F0300F4FF00001816288
:104DF000C16201654FF001002063E16202D02046EC
:104E000000F02EFBA80719D167E015F0220F08D09B
:104E100001F0C6F828B1616B084360632046FFF7D4
:104E20007FFD206840F63A71C1F6000181630120E0
:104E30002063A8074FF00000E06273D0204602B064
:104E4000BDE8704000F008BB216A202945D3E6691F
:104E500001AD31780191727841EA02210191B27875
:104E600041EA02410191F27841EA02610191294649
:104E700001F0DEF9706801902068294601F0D8F948
:104E8000B06801902068294601F0D2F9F0680190DD
:104E90002068294601F0CCF9306901902068294644
:104EA00001F0C6F9706901902068294601F0C0F947
:104EB000B06901902068294601F0BAF9F0690190C3
:104EC00020682946203601F0B3F9206AE6612038CF
:104ED000206202B070BDC9002AD402B070BD616BFF
:104EE00041F002016163416B09077FF5F9AE616B27
:104EF00041F008016163416B89067FF5F5AE616B96
:104F000041F020016163416BC9063FF5F0AEF2E666
:104F1000012020630020E062204602B0BDE870401E
:104F2000FFF7FEBC204602B0BDE8704000F098BA22
:104F30004FF080518163006D400705F0200006D4DA
:104F400060B9204602B0BDE87040FFF741BC58B9D7
:104F5000204602B0BDE87040FFF736BC204602B0E4
:104F6000BDE87040FFF73CBC204602B0BDE8704091
:104F7000FFF732BC00000000B0B586B058B304465D
:104F8000006B20B90020A061204600F079F90320D1
:104F90002063204600F050F8E8B901A92046FFF749
:104FA000B3FDC0B99DF814109DF81520A06B012821
:104FB00005D11143C9B211B14FF4007005E00128C9
:104FC00002D14FF4807000E00020A0652046E16827
:104FD000FFF70AFC10B1012006B0B0BDFEF770F873
:104FE000054607E0616B08436063FEF769F8401B04
:104FF000013016D0616C2068090400F039FF0028E8
:10500000F0D12068002101F0E7F800F4F050B0F58D
:10501000006FEAD100206063E0620121216306B0E5
:10502000B0BD4FF00040606301202063032006B054
:10503000B0BD000000000000F0B58FB0044600686D
:1050400000210091002100220023FA27019701F09E
:10505000C7F830B902205EF0F3FD206801F0DCF8FB
:1050600018B1012108460FB0F0BD02205EF0E8FD46
:1050700000200490206800F06BFD054658B1022026
:105080005EF0DEFDA5B101212163606B2843606302
:1050900008460FB0F0BD206800F092FD18B3002064
:1050A000E063206800F054FD05460028E7D11CE0CD
:1050B0000120ADF80E00206801F08AF800284DD0DC
:1050C000A06B03284DD12068042101F085F8000D64
:1050D000206404A92046FFF727FC002800F08B80FD
:1050E0004FF080508EE00120E06302205EF0A8FDCA
:1050F000E06B012807D12068002100F0A1FC10B16D
:105100004FF08055BBE704994FF6FE7081426BD893
:1051100000264FF6FF77CCF210162068002100F031
:105120008FFC002876D12068314600F09DFC0028D5
:10513000E6D12068002101F04FF80499002801F120
:1051400001010491049901D4B942E6D304994FF6C0
:10515000FE72914267D94FF0807590E74FF0806002
:1051600050E0206800F0C0FD00284BD120680021ED
:1051700001F032F8E0662068042101F02DF8206784
:105180002068082101F028F8606720680C2101F0F0
:1051900023F8A16BA067032995D020680DF10E01BB
:1051A00000F07AFE70BBA06B03283FF48CAFBDF813
:1051B0000E1020686164090400F0EEFD10BB206849
:1051C000002101F009F8E0652068042101F004F8ED
:1051D00020662068082100F0FFFF606620680C212F
:1051E00000F0FAFFA0666EE704990022814288BFB2
:1051F0000122150643E7616C20680A04002300F0D1
:105200005FFD48B101212163626B10436063084672
:105210000FB0F0BD054632E702205EF011FD00211F
:1052200008460FB0F0BD400001D50120A063002565
:1052300025E700000000000010B547F200010068FB
:10524000C5F20021884218BF10BD44F2D44040F698
:105250000004C5F60200C5F60204016821F480319D
:1052600001604FF4F8512046FDF756FD04F58060CB
:105270000421FDF751FD3120BDE81040FEF708B8CC
:105280002DE9F04387B000260696CDE9046647F283
:1052900000010068C5F2002103968842029602D000
:1052A00007B0BDE8F08344F2E04040F60004C5F6E4
:1052B0000200C5F6020402AD4FF0020850F80C1CC3
:1052C0004FF0030941F4803140F80C1C50F80C1CDD
:1052D0000C2701F4803101910199016841F004012A
:1052E0000160016801F0040101910199016841F038
:1052F000080101600068294600F00800019001984B
:105300004FF4F85002902046CDE90386CDF8149072
:105310000697FDF7F9FD04202946CDE9020804F5BA
:105320008060CDE904690697FDF7EEFD3120052187
:105330000022FDF7D1FF3120FDF7BEFF07B0BDE829
:10534000F0830000000000002DE9F04186B0044623
:1053500099B1206B012818D10F46002161631546D1
:105360009818226D1E46904213D9606B40F0007071
:105370006063012006B0BDE8F081606B40F0006022
:105380006063012006B0BDE8F081022006B0BDE8F0
:10539000F0810320206320684FEA4628A26BC16297
:1053A0004FF400716762012AC4F8288018BF6D02AB
:1053B00000F0A6FB68B1216840F6FF72C1F6E0720A
:1053C0008A63616B084360630120206306B0BDE817
:1053D000F0814FF0FF306946CDE90008902002903F
:1053E000022003900020CDE90400206800F024FE94
:1053F0002068022EC16B41F49571C163C16841F010
:105400004001C16087654FF00101016505D382212C
:10541000E162294600F02CFC04E08121E16229468A
:1054200000F03AFC014600284FF0000010D022683E
:1054300040F6FF73C1F6E0739363D36B23F4957367
:10544000D363626B1143616301212163E062012038
:1054500006B0BDE8F0810000FCF7DAB900000000FA
:10546000FCF7F2B9000000002DE9F04186B00446D7
:1054700099B1206B012818D10F46002161631546B0
:105480009818226D1E46904213D9606B40F0007050
:105490006063012006B0BDE8F081606B40F0006001
:1054A0006063012006B0BDE8F081022006B0BDE8CF
:1054B000F0810320206320684FEA4628A26BC16276
:1054C0004FF40071E761012AC4F8208018BF6D0213
:1054D00000F016FB68B1216840F6FF72C1F6E07279
:1054E0008A63616B084360630120206306B0BDE8F6
:1054F000F0814FF0FF306946CDE900084FF0900889
:10550000CDF808800020CDE903000590206800F068
:1055100093FD2068022EC16B41F48D71C163C16897
:1055200041F04001C16087654FF00101016505D37D
:10553000A021E162294600F057FD04E02946C4F8A5
:105540002C8000F065FD014600284FF0000010D0CF
:10555000226840F6FF73C1F6E0739363D36B23F4C4
:105560008D73D363626B1143616301212163E06238
:10557000012006B0BDE8F08116F08ABA00000000F4
:1055800080B582B00020019045F2184001ABC4F212
:105590000000026802F47C5141604FF68860C2F25C
:1055A0000540816843F2C170C0F6160060F014FF38
:1055B000019850B14EF604504FF08051CEF20000E9
:1055C0000160BFF34F8FBFF36F8F02B080BD00004B
:1055D000B0B582B045F204440020C4F2000401904A
:1055E0006569680621D4280644D4EAB24FF688607B
:1055F000C2F2054001AB816843F2C170C0F61600EB
:1056000060F0EAFE0198002805F03800A0610AD099
:105610004EF604504FF08051CEF200000160BFF30F
:105620004F8FBFF36F8F02B0B0BD4FF68860C2F2EC
:105630000540418859B3CAB2FF2988BFFF22891AA1
:105640004180B8200904C4F20200036843F001035A
:10565000036054F8040C40F4004044F8040C206843
:105660006FF39F2040EA024014D040F0807040F475
:10567000105024E04FF68860C2F20540018889B1DD
:10568000CAB2FF2988BFFF22891A018012E04FF4B5
:10569000804014E042F20041C0F2001101F180713B
:1056A00008430CE0418881B1CAB2FF2988BFFF22BC
:1056B000891A4180206820F47F0040EA024020607F
:1056C00005F03800A06102B0B0BD4FF48040F6E7AD
:1056D00080B59FED0D1B43F67030B5EE400B20EE0C
:1056E000011BC2F20640F1EE10FABCEEC11B11EE36
:1056F000101AB8BF4FF0FF3100685FF059FE002864
:1057000018BF012080BD00BF0000000000008940DC
:1057100000205DF0F1BA0000000000000000000071
:10572000EFF30980BFF36F8F154B1A681EF0100F4F
:1057300008BF20ED108A20E9F04F10602DE9090024
:105740004FF0200072B680F31188BFF34F8FBFF384
:105750006F8F62B65EF0C4FD4FF0000080F31188D9
:10576000BDE8090019680868B0E8F04F1EF0100F96
:1057700008BFB0EC108A80F30988BFF36F8F7047C1
:10578000101F01200000000080B582B045F2080023
:105790000021C5F2002001910168890705D4016844
:1057A000090711D50222082101E0012202214160EE
:1057B0004FF61460C2F2054001AB416843F2C1707C
:1057C000C0F6160060F008FEBFF34F8F019850B18D
:1057D0004EF604504FF08051CEF200000160BFF34E
:1057E0004F8FBFF36F8F02B080BD0000000000003C
:1057F000F0B581B044F22C47C5F6020757F8042CE7
:1058000002F00302032A02D1012001B0F0BD0546D7
:1058100057F82C0C0C4620F0806047F82C0CFDF754
:105820004FFC064657F82C0C000105D5FDF748FC47
:10583000801B0228F6D964E057F8040CEE6895E85E
:105840000E0020F47C30012C40EA0130A2F101016D
:105850006FF35F214FF47E4202EB432247F8040CC2
:1058600092B24FF0FE4302EB01004FF4FE012A69B1
:1058700001EB064101F4FE0103EB0262084402F071
:10588000FE410844F8603868696920F0C00040EAC9
:10589000010038603868A96920F0200040EA010062
:1058A000386038684FF6F87120F0100038603869B9
:1058B000EA6920EA01004FF4001140EAC2003861B1
:1058C000386808BF4FF4801140F01000002C386099
:1058D00008BF4FF4002138680843386057F82C0C93
:1058E00040F0806047F82C0CFDF7EAFB044600BF4F
:1058F00057F82C0C000107D4FDF7E2FB001B03282E
:10590000F6D3032001B0F0BD002001B0F0BD0000CF
:10591000F0B581B044F22C47C5F6020757F8042CC5
:1059200002F00302032A02D1012001B0F0BD0546B6
:1059300057F82C0C0C4620F0805047F82C0CFDF743
:10594000BFFB064657F82C0C800005D5FDF7B8FBC9
:10595000801B0228F6D964E057F8040CEE6895E83D
:105960000E0020F07C70012C40EA0150A2F10101F0
:105970006FF35F214FF47E4202EB432247F8040CA1
:1059800092B24FF0FE4302EB01004FF4FE012A6990
:1059900001EB064101F4FE0103EB0262084402F050
:1059A000FE41084478613868696920F4406040EA43
:1059B000010038603868A96920F4007040EA0100ED
:1059C000386038684FF6F87120F480703860B86934
:1059D000EA6920EA01004FF0807140EAC200B86134
:1059E000386808BF4FF4000140F48070002C386024
:1059F00008BF4FF4800138680843386057F82C0C12
:105A000040F0805047F82C0CFDF75AFB044600BFCD
:105A100057F82C0C800007D4FDF752FB001B03281D
:105A2000F6D3032001B0F0BD002001B0F0BD0000AE
:105A30004AF2EC40C2F20640FFF72EB90000000027
:105A400081604EF2C002C168CFF6FE7201EA020325
:105A500041F2371C372141F2883243EA0C03C3601C
:105A600000F002BB0000000081604EF2C002C1687D
:105A7000CFF6FE72114041F229121143C1604FF678
:105A8000000144F6D352C2F20541C1F262026FF046
:105A900003030968A1FB0212510A41F2883201FB9B
:105AA000123100BF043126D0426B12F0450F02D0F4
:105AB00012F4005214D0426B12F0450F02D012F4CF
:105AC00000520DD0426B12F0450F02D012F400527A
:105AD00006D0426B12F0450FE4D012F40052E1D12F
